:100000000C942A000C9447000C9447000C94470071
:100010000C9447000C9447000C9447000C94470044
:100020000C9447000C9447000C9447000C94490032
:100030000C9447000C9447000C9447000C94470024
:100040000C9447000C9447000C9447000C94470014
:100050000C94470011241FBECFE5D8E0DEBFCDBF12
:1000600010E0A0E6B0E0E4E1F4E002C005900D92FB
:10007000A836B107D9F714E0A8E6B0E001C01D9298
:10008000A437B107E1F70E94BE000C9408020C945B
:1000900000001F920F920FB60F9211248F939F931F
:1000A0008091680080FF0AC088B599B58F3F91059F
:1000B00028F488B599B5019699BD88BD80916800EE
:1000C00081FF09C088B599B5892B29F088B599B504
:1000D000019799BD88BD8091680083FF0AC08AB5E9
:1000E0009BB58F3F910528F48AB59BB501969BBDC2
:1000F0008ABD8091680082FF09C08AB59BB5892BB3
:1001000029F08AB59BB501979BBD8ABD9F918F91C0
:100110000F900FBE0F901F9018958FEF84BB89B77B
:10012000826089BF7894089580916800882311F0D7
:10013000929A01C09298839B04C08091680085BB0D
:100140000BC080916800807F85BB809168008F70B4
:1001500019F085E083BF089513BE08958093680069
:100160000C9494000E94C5000E948D000E94F00033
:100170008FEF87BB88BB8F9A979A08950E94B20031
:100180000E941E010E94AE00FBCF81B3806381BB41
:100190008FB5816A8FBD8EB589608EBD88EC90E089
:1001A0009BBD8ABD99BD88BD089510BC8CE089B9FE
:1001B000599A539A80B58F7B80BD8EE880BD089593
:1001C0005D9BFECF8CB90895CF93DF93EC018991AD
:1001D000882319F00E94E000FACFDF91CF910895B3
:1001E000E9E6F0E024E730E080E090E0D901A80FF4
:1001F000B91F1C92019680389105C1F711922058C1
:100200003F4F80E0E137F80779F708958FEF8ABB19
:1002100084BB1BBA15BA08958BB38A6A8BBB8AEA72
:100220008ABB8BBB95B39A6A95BB84BB85BB08958B
:1002300085E58ABB1BBA84BB15BA08954F925F92BD
:100240006F927F929F92AF92BF92CF92DF92EF9286
:10025000FF920F931F93CF93DF93CDB7DEB728970D
:100260000FB6F894DEBF0FBECDBFA091730024E798
:1002700030E0BE01675F7F4FFE013196EA2EF12C20
:1002800080E090E040E050E08901080F191FD8019C
:100290001C91410F511D019680389105A9F7479592
:1002A000442747954193C9018E0D9F1DDC011C9287
:1002B00020583F4FE617F70719F70E940601909064
:1002C00073009091720080917100E9E6F0E020E601
:1002D000622E20E0722E9E012F5F3F4F290120E009
:1002E00030E0692D70E06C587F4F01E010E0AF0105
:1002F000495650407A01C92ED12C042E02C0D59403
:10030000C7940A94E2F7C0FE2EC06B01C20ED31E42
:10031000D601AC90B12CD201CC90D12CBFEFCB1A2E
:10032000DB0ACA14DB0424F4D080D394D08201C049
:100330001082D08045E04D150CF03FC01082D801EE
:1003400002C0AA0FBB1FEA94E2F77D01E0946801A6
:10035000D3010C9002C0CC0CDD1C0A94E2F7C094CF
:100360008C219E212AC06B01C20ED31ED601AC90F7
:10037000B12CD201CC90D12CB1E0CB1AD108AC1465
:10038000BD0424F4D080DA94D08201C01082D080E1
:1003900044E04D1594F01082D80102C0AA0FBB1F93
:1003A000EA94E2F77D016801D3010C9002C0CC0C05
:1003B000DD1C0A94E2F78C299E293196BFEF6B1A57
:1003C0007B0A20583F4F4FEF441A540A211554E03E
:1003D000350709F08CCF909372008093710093944D
:1003E0009092730028960FB6F894DEBF0FBECDBF73
:1003F000DF91CF911F910F91FF90EF90DF90CF9001
:10040000BF90AF909F907F906F905F904F900895B6
:04041000F894FFCF8E
:080414000605010300070204C4
:00000001FF
