:100000000C942A000C943C000C943C000C943C0092
:100010000C943C000C943C000C943C000C943C0070
:100020000C943C000C943C000C943C000C943E005E
:100030000C943C000C943C000C943C000C943C0050
:100040000C943C000C943C000C943C000C943C0040
:100050000C943C0011241FBECFE5D8E0DEBFCDBF1D
:1000600010E0A0E6B0E001C01D92A53EB107E1F7A7
:100070000E94B3000C94D4010C9400001F920F92C4
:100080000FB60F9211248F939F938091600080FF91
:100090000AC088B599B58F3F910528F488B599B500
:1000A000019699BD88BD8091600081FF09C088B527
:1000B00099B5892B29F088B599B5019799BD88BD67
:1000C0008091600083FF0AC08AB59BB58F3F910580
:1000D00028F48AB59BB501969BBD8ABD80916000CE
:1000E00082FF09C08AB59BB5892B29F08AB59BB5DB
:1000F00001979BBD8ABD9F918F910F900FBE0F906E
:100100001F9018958FEF84BB89B7826089BF789460
:10011000089580916000882311F0929A01C092980E
:10012000839B04C08091600085BB0BC08091600000
:10013000807F85BB809160008F7019F085E083BF60
:10014000089513BE0895809360000C9489000E9466
:10015000BA000E9482000E94E5008FEF87BB88BB37
:100160008F9A979A08950E94A7000E943D010E94CD
:10017000A300FBCF81B3806381BB8FB5816A8FBD44
:100180008EB589608EBD88EC90E09BBD8ABD99BD1F
:1001900088BD089510BC89E189B95998539A80B5F2
:1001A0008F7B80BD8EE880BD08955D9BFECF8CB9AE
:1001B0000895CF93DF93EC018991882319F00E9471
:1001C000D500FACFDF91CF9108950E94CA008E9A90
:1001D000E5E6F0E080E0E53EF80711F01192FACF95
:1001E000109261000895969A8FEF8ABB84BB1BBA68
:1001F00015BA969808958BB38A6A8BBB8AEA8ABB34
:100200008BBB95B39A6A95BB84BB85BB089585E586
:100210008ABB1BBA84BB15BA0895EF92FF920F9365
:100220001F93CF93DF931F92CDB7DEB77B018983F6
:100230000E94F300898190E0880F991F86709927AA
:10024000019601E001C0000F8A95EAF710E00E94D4
:10025000FB000E940701F7018081802329F41F5FC2
:100260001F3FA9F78FEF01C0812F0F90DF91CF9132
:100270001F910F91FF90EF9008950F931F93CF93CD
:10028000DF93E5E6F0E080E090E020E0E53EF20775
:1002900021F02191820F911DF8CFEC01CC0FCD2FD1
:1002A000CC1FDD0B0091640010E069E370E080E09A
:1002B0000E940D01F801EB59FF4F808384E60E94F4
:1002C000D500E0916400F0E0EB59FF4F80810E947F
:1002D000D5008C2F0E94D50020916300DD2720FFE0
:1002E00020C0E0916400F0E0EB59FF4F808190E086
:1002F0002196C817D90734F4809161008F5F8093ED
:10030000610002C01092610080916100863094F11A
:10031000109261002E7F20936300809162008F7B9A
:1003200027C083E60E94D500E0916400F0E0EB591D
:10033000FF4F808190E021978C179D074CF48091AE
:1003400061008150809361008DE60E94D50002C05B
:1003500010926100809161008B3F64F41092610003
:10036000809163008160809363008091620080646B
:1003700080936200809161000E94D5008AE00E9413
:10038000D5008091630080FF02C0979801C0979AC2
:10039000809164008F5F8093640080916200DF91A0
:0C03A000CF911F910F910895F894FFCFAA
:00000001FF
