:100000000C942A000C943C000C943C000C943C0092
:100010000C943C000C943C000C943C000C943C0070
:100020000C943C000C943C000C943C000C943E005E
:100030000C943C000C943C000C943C000C943C0050
:100040000C943C000C943C000C943C000C943C0040
:100050000C943C0011241FBECFE5D8E0DEBFCDBF1D
:1000600010E0A0E6B0E001C01D92A53EB107E1F7A7
:100070000E94B3000C94CF010C9400001F920F92C9
:100080000FB60F9211248F939F938091600080FF91
:100090000AC088B599B58F3F910528F488B599B500
:1000A000019699BD88BD8091600081FF09C088B527
:1000B00099B5892B29F088B599B5019799BD88BD67
:1000C0008091600083FF0AC08AB59BB58F3F910580
:1000D00028F48AB59BB501969BBD8ABD80916000CE
:1000E00082FF09C08AB59BB5892B29F08AB59BB5DB
:1000F00001979BBD8ABD9F918F910F900FBE0F906E
:100100001F9018958FEF84BB89B7826089BF789460
:10011000089580916000882311F0929A01C092980E
:10012000839B04C08091600085BB0BC08091600000
:10013000807F85BB809160008F7019F085E083BF60
:10014000089513BE0895809360000C9489000E9466
:10015000BA000E9482000E94E5008FEF87BB88BB37
:100160008F9A979A08950E94A7000E940D010E94FD
:10017000A300FBCF81B3806381BB8FB5816A8FBD44
:100180008EB589608EBD88EC90E09BBD8ABD99BD1F
:1001900088BD089510BC8CE089B9599A539A80B5EE
:1001A0008F7B80BD8EE880BD08955D9BFECF8CB9AE
:1001B0000895CF93DF93EC018991882319F00E9471
:1001C000D500FACFDF91CF9108950E94CA00D19A4D
:1001D000E5E6F0E080E0E53EF80711F01192FACF95
:1001E000109261000895D99A8FEF8ABB84BB1BBA25
:1001F00015BAD99808958BB38A6A8BBB8AEA8ABBF1
:100200008BBB95B39A6A95BB84BB85BB089585E586
:100210008ABB1BBA84BB15BA08951F93CF93DF9393
:1002200000D000D01F92CDB7DEB7E5E6F0E080E069
:1002300090E020E0E53EF20721F02191820F911D30
:10024000F8CF182F179511271795E0916400F0E06B
:10025000EB59FF4F10820E94F3004AE050E0BE01CC
:100260006F5F7F4F80E090E00E948A01CE0101968F
:100270000E94D9008AE00E94D5005091630040910D
:100280006400812F90E060916200E42FF0E0EB5970
:10029000FF4F208130E050FF17C00196821793076F
:1002A00034F4809161008F5F8093610002C01092EE
:1002B0006100809161008630FCF0109261005E7FE9
:1002C000509363006F7B16C001972817390734F4E9
:1002D0008091610081508093610002C010926100A2
:1002E00080916100853044F4109261005160509318
:1002F00063006064609362004F5F4093640080918C
:1003000062000F900F900F900F900F90DF91CF91A0
:100310001F910895FB019F01E8944230C4F04532DB
:10032000B4F44A3029F497FB1EF4909581959F4FC1
:10033000642F77270E94BB01805D8A330CF0895DB2
:100340008193CB010097A1F716F45DE251931082DF
:10035000C9010C94AB01DC01FC01672F719177237B
:10036000E1F7329704C07C916D9370836291AE1770
:10037000BF07C8F30895AA1BBB1B51E107C0AA1F02
:10038000BB1FA617B70710F0A61BB70B881F991F36
:100390005A95A9F780959095BC01CD010895F894E0
:0203A000FFCF8D
:00000001FF
