:100000000C942A000C9447000C9447000C94470071
:100010000C9447000C9447000C9447000C94470044
:100020000C9447000C9447000C9447000C94470034
:100030000C9447000C9447000C9447000C94470024
:100040000C9447000C9447000C9447000C94470014
:100050000C94470011241FBECFE5D8E0DEBFCDBF12
:1000600010E0A0E6B0E0E4EFF4E002C005900D92ED
:10007000A836B107D9F712E0A8E6B0E001C01D929A
:10008000A437B107E1F70E94AA000C9478020C94FF
:1000900000008FEF87BB089580916800882311F0DE
:1000A000929A01C09298839B05C08091680088BB9A
:1000B00015BC089580916800807F88BB809168009E
:1000C00080FF0AC088B599B58F3F910528F488B59F
:1000D00099B5019699BD88BD8091680081FF09C0DE
:1000E00088B599B5892B29F088B599B5019799BD3F
:1000F00088BD8091680083FF0AC08AB59BB58F3F99
:10010000910528F48AB59BB501969BBD8ABD809167
:10011000680082FF09C08AB59BB5892B29F08AB592
:100120009BB501979BBD8ABD0895CF93C82F0E94B0
:10013000D100C0936800CF910C944C000E94B40091
:100140000E9449000E94E1008FEF87BB88BB8F9A15
:10015000979A08950E949E000E9442010E94950075
:100160008AE00E94D100F8CF81B3806381BB8FB554
:10017000816A8FBD8EB589608EBD88EC90E09BBD95
:100180008ABD86E990E099BD88BD089510BC87E6D8
:1001900089B95998539A80B58F7B80BD8EE880BD10
:1001A00008955D9BFECF8CB90895CF93DF93EC014A
:1001B0008991882319F00E94D100FACFDF91CF9165
:1001C00008950E94C6008E9AE9E6F0E024E730E048
:1001D00080E090E0D901A80FB91F1C9201968034ED
:1001E0009105C1F71192205C3F4F80E0E137F8079D
:1001F00079F708958FEF8ABB84BB1BBA15BA0895AF
:100200008BB38A6A8BBB8AEA8ABB8BBB95B39A6A2B
:1002100095BB84BB85BB089585E58ABB1BBA84BBAF
:1002200015BA0895EF92FF920F931F93CF93DF9328
:100230001F92CDB7DEB77B0189830E94FA008981C6
:1002400090E0880F991F86709927019601E001C000
:10025000000F8A95EAF710E00E9400010E940C014D
:10026000F7018081802329F41F5F1F3FA9F78FEFDB
:1002700001C0812F0F90DF91CF911F910F91FF90BF
:10028000EF9008958F929F92AF92BF92CF92DF929C
:10029000EF92FF920F931F93CF93DF93CDB7DEB70B
:1002A00029970FB6F894DEBF0FBECDBF4091730003
:1002B00024E730E0BE01675F7F4FCE0101966C01FD
:1002C00050E000E010E080E090E0DC017901E00E19
:1002D000F11EF701F0808F0D911DA11DB11D0F5F63
:1002E0001F4F0034110591F7E6E0B595A795979556
:1002F0008795EA95D1F7F60181936F01D901A40F93
:10030000B51F1C92205C3F4FE617F707D1F600E0BF
:1003100010E090E069E3E62EF12C9A012C583F4F53
:100320006901943019F443E3E42EF12CB701892FCD
:1003300099870E941201F601E00FF11F80839985D1
:100340009F5F005C1F4F983061F784E60E94D100E8
:10035000CE0101967C0100E010E080917300F8016D
:1003600036E0EE0FFF1F3A95E1F7E80FF11DEC586C
:10037000FF4F80810E94D100D7018D917D010E94A5
:10038000D1000F5F1F4F0830110539F7969A409141
:100390007300B0907200A0907100E9E6F0E020E6F2
:1003A00030E0CE0101964C0180E090E050E04C58E6
:1003B0005F4F61E070E08F0109561040EB2CF12C8B
:1003C000002E02C0F594E7940A94E2F7E0FE2EC0F6
:1003D0007A01E80EF91ED701CC90D12CD401EC9013
:1003E000F12CBAE0EB0EF11CEC14FD0424F4F080C7
:1003F000F394F08201C01082F080AAE0AF150CF0F7
:100400003FC01082DB0102C0AA0FBB1F0A95E2F7B2
:100410008D0100957B01D9010C9002C0EE0CFF1CF0
:100420000A94E2F7E094AE20B0222AC07A01E80EE6
:10043000F91ED701CC90D12CD401EC90F12CBAE06C
:10044000EB1AF108CE14DF0424F4F080FA94F08261
:1004500001C01082F080ABEFFA1694F41082DB0139
:1004600002C0AA0FBB1F0A95E2F78D017B01D901DB
:100470000C9002C0EE0CFF1C0A94E2F7AE28B02AE2
:1004800031962F5F3F4F805C9F4FBFEF8B1A9B0AC7
:100490008115A2E09A0709F08ECFB0927200A09267
:1004A0007100969880917200882311F0979801C08E
:1004B000979A809173008F5F803419F08093730056
:1004C00002C0109273008091710029960FB6F894C3
:1004D000DEBF0FBECDBFDF91CF911F910F91FF9077
:1004E000EF90DF90CF90BF90AF909F908F90089546
:0404F000F894FFCFAE
:0804F4000605010307000204E4
:00000001FF
