:100000000C942A000C9447000C9447000C94470071
:100010000C9447000C9447000C9447000C94470044
:100020000C9447000C9447000C9447000C94470034
:100030000C9447000C9447000C9447000C94470024
:100040000C9447000C9447000C9447000C94470014
:100050000C94470011241FBECFE5D8E0DEBFCDBF12
:1000600010E0A0E6B0E0E2E2F5E002C005900D92FB
:10007000A836B107D9F711E0A8E6B0E001C01D929B
:10008000A637B107E1F70E94D4000C948F020C94BC
:1000900000008FEF87BB8A9A089580916A008823B9
:1000A00019F0929A979A02C092989798839B05C0EC
:1000B00080916A0088BB15BC089580916A00807F9A
:1000C00088BB80916A0080FF0AC088B599B58F3FD0
:1000D000910528F4809169008F5F80936900809179
:1000E0006A0081FF09C088B599B5892B29F08091F4
:1000F000690081508093690080916A0083FF0AC083
:100100008AB59BB58F3F910528F4809168008F5F79
:100110008093680080916A0082FF09C08AB59BB510
:10012000892B29F08091680081508093680080912C
:10013000690083303CF088B599B5019699BD88BDBA
:1001400010926900809169008E3F3CF488B599B5A2
:10015000019799BD88BD1092690080916800833035
:100160003CF08AB59BB501969BBD8ABD1092680094
:10017000809168008E3F3CF48AB59BB501979BBD8A
:100180008ABD10926800089580936A000C944D0017
:100190000E94DB000E9449000E9408018FEF87BB8C
:1001A00088BB8F9A979A08950E94C8000E94820186
:1001B0000E94C400FBCF81B3806381BB8FB5816A8D
:1001C0008FBD8EB589608EBD88EC90E09BBD8ABDE9
:1001D00086E990E099BD88BD089510BC87E689B98D
:1001E0005998539A80B58F7B80BD8EE880BD089565
:1001F0005D9BFECF8CB90895CF93DF93EC0189917D
:10020000882319F00E94F800FACFDF91CF9108956A
:100210008E9AEBE6F0E026E730E080E090E0D9014E
:10022000A80FB91F1C92019680329105C1F7119257
:10023000205E3F4F80E0E337F80779F70895CF93CA
:10024000DF931F92CDB7DEB78FEF8ABB84BB1BBA9B
:1002500015BA19828FE799819F5F99838150D9F7E9
:100260000F90DF91CF9108958BB38A6A8BBB8AEA96
:100270008ABB8BBB95B39A6A95BB84BB85BB08953B
:1002800085E58ABB1BBA84BB15BA0895CF92DF926D
:10029000FF920F931F93CF93DF931F92CDB7DEB7DB
:1002A0008B0189830E941F01898190E0880F991F2B
:1002B00086709927019621E0F22E01C0FF0C8A95E5
:1002C000EAF7C12CD12C0E9434010E944001F801B0
:1002D00080818F2131F0C6019695879596958795F7
:1002E00008C0FFEFCF1ADF0AC11484E0D80659F71F
:1002F0008FEF0F90DF91CF911F910F91FF90DF90C3
:10030000CF9008958F929F92AF92BF92CF92DF923B
:10031000EF92FF920F931F93CF93DF93CDB7DEB78A
:1003200029970FB6F894DEBF0FBECDBF4091750080
:1003300026E730E0BE01675F7F4FCE0101966C017A
:1003400050E000E010E080E090E0DC017901E00E98
:10035000F11EF701F0808F0D911DA11DB11D0F5FE2
:100360001F4F0032110591F7E5E0B595A7959795D8
:100370008795EA95D1F7F60181936F01D901A40F12
:10038000B51F1C92205E3F4FE617F707D1F600E03D
:1003900010E090E069E3E62EF12C9A012A583F4FD5
:1003A0006901943019F443E3E42EF12CB701892F4D
:1003B00099870E944601F601E00FF11F808399851D
:1003C0009F5F005E1F4F983061F7969A40917500CD
:1003D000B0907400A0907300EBE6F0E020E630E00F
:1003E000CE0101964C0180E090E050E04A585F4F0A
:1003F00061E070E08F010B561040EB2CF12C002EC9
:1004000002C0F594E7940A94E2F7E0FE2EC07A0168
:10041000E80EF91ED701CC90D12CD401EC90F12C30
:10042000B2E0EB0EF11CEC14FD0424F4F080F39424
:10043000F08201C01082F080A6E0AF150CF03FC042
:100440001082DB0102C0AA0FBB1F0A95E2F78D01E3
:1004500000957B01D9010C9002C0EE0CFF1C0A94A0
:10046000E2F7E094AE20B0222AC07A01E80EF91E2D
:10047000D701CC90D12CD401EC90F12CB4E0EB1A44
:10048000F108CE14DF0424F4F080FA94F08201C065
:100490001082F080ABEFFA1694F41082DB0102C0F8
:1004A000AA0FBB1F0A95E2F78D017B01D9010C90C1
:1004B00002C0EE0CFF1C0A94E2F7AE28B02A319677
:1004C0002F5F3F4F8096BFEF8B1A9B0A8115A1E0EB
:1004D0009A0709F08FCFB0927400A092730096989B
:1004E000809175008F5F803219F08093750002C093
:1004F000109275008091730029960FB6F894DEBFB4
:100500000FBECDBFDF91CF911F910F91FF90EF9064
:10051000DF90CF90BF90AF909F908F900895F89408
:02052000FFCF0B
:080522000605010307000204B5
:00000001FF
